:020000040000FA
:10000000986D0020452D0000D1660000312D0000C4
:10001000312D0000312D0000312D0000312D000068
:100020000000000000000000000000000D2E000095
:10003000312D000000000000312D0000312D0000A6
:10004000852F0000852F0000852F0000852F0000E0
:10005000852F0000852F0000852F0000852F0000D0
:10006000852F0000852F0000852F0000852F0000C0
:10007000852F0000852F0000852F0000852F0000B0
:10008000852F0000852F0000852F0000852F0000A0
:10009000852F0000852F0000852F0000852F000090
:1000A000852F0000852F0000852F0000852F000080
:1000B000852F0000852F0000852F0000852F000070
:1000C000852F0000852F0000852F0000852F000060
:1000D000852F0000852F0000852F0000852F000050
:1000E000852F0000852F0000852F0000852F000040
:1000F000852F0000852F0000852F0000852F000030
:10010000852F0000852F0000852F0000852F00001F
:10011000852F0000852F0000852F0000852F00000F
:10012000852F0000852F0000852F0000852F0000FF
:10013000852F0000852F0000852F0000852F0000EF
:10014000852F000053B94AB9002908BF00281CBFF9
:100150004FF0FF314FF0FF3000F00CB8ADF1080C5C
:100160006DE904CE00F008F8DDF804E0DDE90223D3
:1001700004B07047704700BF2DE9F04786468C46B3
:100180000846089E154674461946002B40F0C1806B
:100190008542B2FA82F245D94AB1C2F1200300FA8F
:1001A00002FC954094402EFA03F343EA0C0C4FEA0C
:1001B000154EA8B2230CBCFBFEF80EFB18CC08FBB6
:1001C00000F943EA0C43994528D9EB1808F1FF37A9
:1001D00004D2994502D9A8F102072B44A3EB0903E5
:1001E000A4B2B3FBFEFC0EFB1C330CFB00F044EA94
:1001F0000344A04214D92C190CF1FF3304D2A042BD
:1002000002D9ACF102032C44241A43EA07401EB180
:10021000D440002334607360BDE8F0874746DDE7D3
:100220006346F1E792BB431B01214FEA154EAFB283
:10023000200CB3FBFEFC0EFB1C330CFB07F840EA62
:100240000343984561D9EB180CF1FF3004D298456F
:1002500002D9ACF102002B44A3EB0803A4B2B3FB18
:10026000FEFC0EFB1C330CFB07F744EA0344A742D9
:100270004DD92C190CF1FF3304D2A74202D9ACF1AD
:1002800002032C44E41B43EA0040C0E7C2F1200310
:100290009540944020FA03F12EFA03F34FEA154EED
:1002A0009040AFB20343B1FBFEFC0EFB1C10190CD7
:1002B0000CFB07F841EA0041884522D969180CF186
:1002C000FF3004D2884502D9ACF102002944A1EBE9
:1002D00008019BB2B1FBFEFC0EFB1C110CFB07F7E7
:1002E00043EA01439F420ED9EB180CF1FF3104D2CF
:1002F0009F4202D9ACF102012B44DB1B41EA0041D1
:1003000093E76046E3E76146F7E76046A4E76346A4
:10031000B8E7834206D916B9002108467CE7C6E94A
:1003200000E0F9E7B3FA83F78FB9834201D372454E
:1003300008D8BEEB020460EB030301209C461EB903
:10034000002169E73846FAE7C6E9004CF8E7C7F14B
:10035000200CBB400EFA07F522FA0CF42EFA0CF131
:10036000BA401C4320FA0CF3B8404FEA1449014349
:100370001FFA84FEB3FBF9F809FB18300B0C08FBDD
:100380000EFA43EA00439A4540D9E31808F1FF30DA
:1003900004D29A4502D9A8F102002344A3EB0A0330
:1003A00089B2B3FBF9F809FB183308FB0EFE41EAEA
:1003B00003418E452CD9611808F1FF3304D28E45D4
:1003C00002D9A8F10203214443EA0040A1EB0E0147
:1003D000A0FB02984145CE46434602D306D14D4587
:1003E00004D20138B9EB020E68EB0403002EA7D04B
:1003F000B5EB0E0261EB030101FA0CFC22FA07F3E4
:10040000F9404CEA0303C6E9003199E74046C5E7E5
:100410004346D9E77FB5384B384A4921C3F800260F
:100420003748C3F80426C3F80826C3F80C26C3F8D7
:100430001026C3F81426C3F81826C3F81C2606F0A5
:1004400060F800F0B3F800F06BF878B14FF050238B
:10045000D3F800340BB1DB0708D54921294806F051
:1004600050F801F0B9FE284802F0B8FA00F00EFB8F
:10047000054601A800F0B2FD0446284600F016FB30
:10048000224B1B68A34205D04521214806F039F8CC
:1004900005F0A5FD039A49211E4806F032F84921CE
:1004A0001D4806F02EF869469DF8080000F05CF83B
:1004B000009B039C1C44019B1D8903F0E7FC66190B
:1004C00001F0BCF801F08CF801F0A6F8002383F3EA
:1004D0000B8883F30A88625982F3088883F31488AF
:1004E000BFF36F8FBFF36F8F7368984745210B4839
:1004F00006F007F8FEE700BF008001503546526E57
:100500008C900000A5900000B88C0000080000202E
:10051000C9900000EC9000001B9100004091000089
:1005200073B50F4C204608F041FAB8B12569A668AA
:100530002B681A2143F080632B6020463368094AF8
:1005400098472046736801A9984720B92B680198FD
:100550005840C0F38060003818BF012002B070BD61
:100560005C8A000011000100024608B538B1054858
:100570000023452105F0C5FF6FF0150008BD086098
:10058000FCE700BF6391000021B1012906D06FF0A4
:1005900015007047044B53F830007047024B03EBD3
:1005A000C0035868704700BFC08C00004FF4C051B2
:1005B000014804F037B900BFCA1B00202DE9F04FF5
:1005C000DFF8E0B1F9B038A8DDE9848916461C46A9
:1005D000869FDBF8005007F0CBFC002138A804F020
:1005E00057FAB8F1000F07D0B9F1000F04DD4A4601
:1005F000414638A807F0C5FC4FF0000833897289DE
:10060000D6F80CA013449A44C2454CD80DA938A87A
:1006100007F0F6FC27B1202238460DA906F091F824
:1006200000232246009331464FF6FF7307A805F0DA
:100630000FFC8046002833D120460C9E00F010FAB3
:1006400086422DD84FF0FF37DFF85C910DF116038D
:1006500005AA06A907A805F049FC002820DB40F000
:100660009880BDF81660102E35D1BDF81460202E8C
:1006700016D133462046069938AA05F050FF78B9BE
:1006800000F004FA3246804638A90DA800F096F929
:100690000646404600F00AFA444B1B68B34217D0A6
:1006A000DBF8005078E0839BAAEB0809994528BF46
:1006B000994641464B462046829A05F030FF002875
:1006C000EED14A46829938A807F05BFCC8449BE704
:1006D0004FF00108BAE7012E35D1BDF81430202BB8
:1006E000DED82046069938AA05F019FF07460028EB
:1006F000D6D19DF814A0BAF1200F02D94FF0FF37E0
:10070000A4E7D9F800302A4E0393039B9F42F5DA01
:100710001DA807F02DFC00211DA804F0B9F972688E
:100720001DA8126856F8081B07F02BFC15A91DA878
:1007300007F066FC524638A915A805F0DBFF002833
:1007400084D00137E1E7202E80D17B1C3FF47EAFBF
:10075000D9F80030BB42D1DDBDF81430B3F5807F4D
:100760009ED12046069938AA05F0D9FE002897D1D7
:1007700000F08CF9FFB282463146BDF8143038AA39
:1007800000970DA800F016F80546504600F08EF9C7
:10079000B4E7B8F1000F83D000F080F9284679B0B3
:1007A000BDE8F08F04000020C88C00000800002085
:1007B000CC8C00002DE9F04FDFF8F4B1ADF5417DB0
:1007C00080462AA81E469DF828738A469146DBF883
:1007D000005007F086FB092201212AA804F0D4F872
:1007E000744B80AA53F8374003EBC7035B6805944A
:1007F0001B6805A81C442146302306F0CFFB0028C7
:1008000040F0CC80059B809A13449C4240F0C68007
:1008100021462CAA05A806F0D5FB002840F0BE8092
:100820002EAF3A46214605A806F0CCFB03900028DF
:1008300040F0B4802CA806F0E3FE059A2B90944279
:1008400040F0AC80039B01971A4600932CA92AA87C
:1008500007F004FB002840F0A1802AA804F0AAF8C1
:10086000002840F09B802CA806F0CAFE2B902AA8F6
:1008700007F041FB864240F0918000F007F9B6F5A1
:10088000807F0746DBF8005040F08380BAF1200FEC
:100890007FD1494680AA2AA804F0B2F8044600286D
:1008A00077D19DF8FF32BC2B73D1DF2606900DF572
:1008B000907A0FA807F05CFB00210FA804F0E8F87D
:1008C00020220DF2DF210FA807F05BFB042206A90E
:1008D0000FA807F056FB07A90FA807F091FB202EE1
:1008E000B146A8BF4FF020099DF81B305046013398
:1008F0004A4607A9A6EB09068DF81B3005F021FF33
:10090000002ECA44D5DC48AA1046002180AB0678E8
:1009100013F801CB013186EA0C06DF2900F8016BE0
:10092000F5D19DF8203103F07F038DF8203112F8C6
:10093000016B76BB0134BE2CF9D19DF8DE31012B61
:1009400027D10FA807F014FB31460FA804F0A0F838
:10095000082219490FA807F014FB414620220FA8CE
:1009600007F00FFB20220DF2DF110FA807F009FBA3
:1009700007A90FA807F044FB00F088F820220446DE
:100980000DF2DF2107A800F019F80546204600F017
:100990008DF800F083F8384600F088F82AA807F0B0
:1009A000ACFA00F07BF828460DF5417DBDE8F08FEC
:1009B00004000020CC8C00008991000070B5094B28
:1009C00004461D680023934205D1074B1D6800F0C3
:1009D00065F8284670BDE65CC85C8642F7D10133F5
:1009E000F1E700BF0400002008000020094A400091
:1009F0000B7852F820108B4209D0013052F82000B9
:100A0000834214BF4FF0FF304FF4407070474FF4F3
:100A100040707047D48C00001FB50F4B0C4613F884
:100A2000300001F0CDFA50B92068102381686A4681
:100A3000103905F074FD28B1206805F06FFD4FF006
:100A4000FF3006E010226846044905F053FE0028F6
:100A5000F2D104B010BD00BFD48C00007C90000027
:100A600013B5044605F093FA6A460146204605F0A0
:100A7000D6F930B10448452105F043FD002002B00D
:100A800010BD0098FBE700BF91910000024B186871
:100A9000421C1A60704700BFD8010020024A136848
:100AA000013B1360704700BFD8010020034B1B6857
:100AB000834201D005F093BA704700BFD8010020EF
:100AC0002DE9F04F414B8BB0064600200D461C68C7
:100AD000FFF75AFD08A9C0B201F072FA28B1FFF77A
:100AE000DDFF20460BB0BDE8F08F2946FFF74CFD37
:100AF0004FF02C0B09A9C0B20BFB056B01F060FA9B
:100B0000002844D02C276F4306EB0708D8F8104084
:100B100014F010044CD1FFF7B9FF089B81460793EE
:100B2000FFF7B4FF4FF480720192294A21468246B2
:100B3000CDE90344079B0294009220465A46FFF7F2
:100B40003DFD04465046FFF7B1FFFFF7A7FF4846BB
:100B5000FFF7ACFF1F4BF25908989A420CD1D8F816
:100B60000C20B8F808309B1806D28268934203D252
:100B7000194B1B68A34222D02DB38268002105F0D7
:100B8000F8FC164A4521164805F0BBFC15E009980B
:100B900005F00AFD0446099805F0C0FC0BF1FF338F
:100BA0000BF1030213F8011FA142ABD19342F9D11B
:100BB0001DB13046089905F0E8FA0A4B1C68089800
:100BC00005F0ACFC8BE7084ADCE700BF040000201E
:100BD000CA3300203DB8F39608000020D4910000ED
:100BE000DE91000000000020CC9100007FB50D4692
:100BF000002104462846CDE9021105F085FA28B304
:100C00002368194EB34203D1204603AA05F010FA17
:100C1000E36AB34204D10121204602AA05F008FA92
:100C2000DDE90232934288BF0393039BAB60039AD2
:100C30002946204600F0DCFB0C4B1A68002A03DD35
:100C400057210B4805F05DFC04B070BD01A9FFF70A
:100C5000E3FE019805F1080105F0A4F9AB680198DD
:100C6000039305F05BFCE2E73DB8F3963C160020E9
:100C7000069200002DE9F84F884691469A460026D4
:100C8000DFF868B01A4C1B4D0B9B9E4201D300202D
:100C90000FE00B9B40469F1BB7F5806F28BF4FF4BA
:100CA0008067124A3B4606EB0A0105F038FC10B19A
:100CB0000120BDE8F88F0A993B465A46484671180C
:100CC00005F042FC0028F3D1C4F800563E44C4F8B5
:100CD0000456C4F80856C4F80C56C4F81056C4F8A4
:100CE0001456C4F81856C4F81C56CDE7DC11002081
:100CF000008001503546526E2DE9F0410E4600212C
:100D0000AC4B04464362AC4B88B003650846FFF722
:100D10003BFC04F120010546C0B201F051F948B195
:100D200000232A46452101900093A44805F0E9FBE1
:100D300005F055F901210020FFF726FC04F14C01D4
:100D40000546C0B201F03CF950B101232A464521C5
:100D5000019000939948002305F0D3FB05F03FF97B
:100D6000204605F0A6F9054668B90022204611463E
:100D700005F048F9054608B300225721904805F0D0
:100D8000C0FB01239FE04FF4807257218D4805F08E
:100D9000B8FB01239D4284F85830E6D194F85830CE
:100DA000042B8DF8173000F29180012B00F2958012
:100DB00000F0A880FF2384F85830A3E0204600F01C
:100DC00029FA0028DDD004A805F095F9014620464F
:100DD00005F030FA18B12A4657217B48CFE704A81E
:100DE00005F092F980F0010104AA2046C9B205F08D
:100DF00009F902460028BFD104A805F085F9054687
:100E000060BB204604A9FFF7F1FE9DF8173084F877
:100E10005830033B012B06D8284600F00FF910B1DB
:100E2000FF2384F858309DF81730023B022B0BD873
:100E3000002000F0EDF838B1FF2384F85830452148
:100E4000624805F05EFBFEE794F85830FF2BF6D0C1
:100E50000021204604AA05F0D5F892E79DF8177006
:100E6000012F1ED1104603F09FF8831E022B05466A
:100E700014D8FFF70BFE394680462046FFF720FEC8
:100E800007464046FFF712FE514B1B689F4205D0B4
:100E9000504B1D68AF4214BF0525012584F85850FA
:100EA0007CE7FFF7F3FD012107462046FFF708FE28
:100EB00005463846FFF7FAFD454B1B689D4214BFB7
:100EC00005239DF8173084F8583067E7052B7FF429
:100ED00071AF002000F0B2F811E0204604A9FFF73E
:100EE00085FE94F85830DA1E012A34D8002000F02C
:100EF000A5F800287FF45EAF002000F089F80028F4
:100F00007FF458AF94F85830FF2B05D145212F4876
:100F100005F0F7FA05F063F8002294F858302E4FE8
:100F2000012B03921AD01146204605F06BF8A8B1A8
:100F30003D68102200210DEB020005F00DFCE06C75
:100F400005F0ECFA206A05F0E9FAFFF7A7FD28465C
:100F500008B0BDE8F081022BD4D1CDE7FFF796FDB4
:100F6000002180462046FFF7ABFD05464046FFF7CF
:100F70009DFDDFF85C80D8F800309D42D8D13B68F9
:100F80009D42D5D0134B1B689D42D1D0039B0133AA
:100F90000393039B012B01D005F021F8206A04F094
:100FA0003CFF3071236A5B683460D8F80050B3604E
:100FB000BFE700BFDC090020DC0100203592000003
:100FC000C492000082920000F09200001A93000088
:100FD00008000020000000200400002070B50B4E27
:100FE000044660220021304605F0B6FBFFF74EFDB7
:100FF000214605463046FFF77FFE04462846FFF7A8
:1010000055FDFFF74BFD204670BD00BFDC150020ED
:1010100013B5094B01A913F8300000F0D1FF48B90E
:10102000019805F07FFF0446019805F077FA204605
:1010300002B010BD0124FAE7DC8C00001FB50F4B95
:1010400001A913F8300000F0BBFFA8B9019802A96C
:1010500002F054FF044668B99DF80B30032B03D10E
:10106000019805F02DFF0446019805F057FA204637
:1010700004B010BD0124F7E70124F8E7DC8C000080
:101080002DE9F34106460C4617461D460BB90026CE
:1010900028E0184605F038F80028F8D16946FFF72F
:1010A000BBFC009838B90124009805F037FA2046B7
:1010B00002B0BDE8F08101A904F074FF0028F2D16C
:1010C000009805F02BFA3046019905F000F9736A93
:1010D0005E686B79012B21D1002CD8D12B6883421B
:1010E00098BF002621460020FFF74EFA6946C0B29D
:1010F00000F066FF0028D6D120233A4631460098FA
:1011000005F00DFA04460028CDD1002DCCD03C6866
:101110000D4BE41A18BF4FF0FF34C5E7022BB6D1D0
:101120002B68012B05D98342B1D8B4FA84F4640941
:10113000ADE7ACD1002CD5D0012CA8D12C79023C44
:1011400018BF0124A3E700BF3DB8F3962DE9F04F87
:1011500007460C4685B0014600201646FFF746FCC0
:10116000051E51DB3846E46D04F011FF5FFA84F987
:101170004FF0000A4FF0010B4FF0FF346B1E09FBDC
:1011800003089DB9BAF1010F03DD4521204805F0A0
:10119000B8F9631C06D0FF2C2ADC40F2011301349D
:1011A0003460B380284605B0BDE8F08F6B1E009315
:1011B0004146012338460DF10F0205F0B0F9031E38
:1011C000019323DB012238460DF10F0105F013FED8
:1011D000019B40B15B4501D00AF1010A9B46009D8D
:1011E000A8EB0908CDE7B4F1FF3F08BF2C46F5E7AF
:1011F0000223A4F580747371631004F001040133B9
:10120000013433603471CDE70725CBE70125C9E709
:101210002693000070B5866A456D044605F046F8D1
:10122000AE420AD06B1CB34207D0834205D057218F
:10123000134805F066F9002070BDB6F5807F1CD913
:1012400057211048F5E7626A216D02EBC30201EBFA
:10125000C30152684968914202D057210A48E8E721
:1012600001339D42EFD1AE4205D9636A03EBC5035A
:101270005B689342F1D10120DEE700231A46F0E7D4
:101280004993000081930000B093000000B589B03D
:10129000022004A905F021FE9DF81020012A41D06A
:1012A000254B2649032A08BF0B469DF813204921E8
:1012B00002929DF81220224801929DF8112000927E
:1012C000204A05F01EF9082006A905F006FE9DF843
:1012D0001820012A28D0184B1849032A08BF0B46AA
:1012E0009DF81B20492102929DF81A201448019272
:1012F0009DF819200092144A05F003F99DF810306A
:10130000012B13D19DF81230032B0FD19DF818300B
:10131000012B0BD00D48492105F0F3F8022009B04C
:101320005DF804FB0A4BC0E7094BD9E7094849219E
:1013300005F0E7F80020F2E7DC930000E5930000F9
:10134000F9930000EB9300003A9400004A940000E7
:10135000E09300006994000070B54B6814461E4A83
:1013600003F0FF23934206460D4686B02FD10B684B
:10137000012B2CD1204604A902F0C0FD9DF81020BD
:10138000012A26D0154B1649032A08BF0B469DF8A3
:101390001320492102929DF81220124801929DF8D3
:1013A00011200092104A05F0ACF89DF81030032B84
:1013B0000DD12146304604F0E8FE204605F080FDC0
:1013C0002046A96804F0FCFD204602F077FD06B037
:1013D00070BD064BDBE700BF00010004DC9300009A
:1013E000E5930000F99300003A940000E0930000B8
:1013F0002DE9F04F1646054689B00C467448492140
:1014000005F07FF83146284604F061FF6B6A82469A
:1014100020465E6804F078FEE8B1E86D04F0B2FDA5
:101420000023AF6A013F3344834201D2013FFAE710
:10143000BA4510D35721674805F063F807FB06F358
:1014400057210AFB0662644805F05BF80123E3714B
:1014500009B0BDE8F08F06A9022000F0B1FD07A990
:10146000082000F0ADFD21462846079AFFF774FFDB
:101470006379012B4BD15746DFF860B141E0226818
:10148000C2F1010353449F423AD86B6A012A19689A
:1014900053F8370003EBC70353F8083CA0EB0109EE
:1014A000A3EB0103049311D1079B0393E368022B81
:1014B00008D04146284604F068FE224641462846A8
:1014C00004F099FE2846039904F05FFE324649462F
:1014D000404604F058FE049B424641462846CDE96A
:1014E0000096FFF7C7FB2146284604F01AFE236842
:1014F0000133236020B1DBF800300133CBF800303A
:10150000013FDDF81880002FB9D1012323600223A9
:1015100001276371BA45DDF8189006D2484604F0F9
:10152000FDFF079804F0FAFF92E723689F424DD32E
:101530006A6AFB0052F83710083B04911168DDF825
:101540001CB00391D1582A6DD0581368A0EB030842
:101550002379012B38D1039B3246C91A484605919D
:1015600004F011FE059943464A4600912846594623
:101570000196FFF77FFB2146284604F0D2FD0223A7
:10158000237118B1154A136801331360324641467E
:10159000584604F0F8FDDDE9032349469B1A284626
:1015A0005A46CDE90086FFF765FB2146284604F040
:1015B000B8FD2368013323600123237130B1074A4A
:1015C00013680133136001E0022BDFD00137A1E77C
:1015D00080940000A9940000D89400003C160020DC
:1015E000BFF36F8F72B600234FF0FF30094A03F14B
:1015F00020010133102B42F82100F8D100234FF0D5
:10160000FF30044A03F160010133102B42F821003E
:10161000F8D1704700E100E0002318460649D1F8F0
:101620009020C2F30722934200DB7047C1F8983044
:10163000C1F8A0000133F6E700ED00E038B5012263
:101640004FF0FF3400251A4B29465A60C3F848432F
:10165000C3F8084303F580535A60C3F84843C3F8FE
:101660000843A3F55043C3F800558022C3F808434C
:10167000104805F071F8802229460F4805F06CF8F3
:101680000E4B8022C3F800552946C3F808430C4886
:1016900005F062F8802229460A4805F05DF80A4BF9
:1016A000C3F808454FF05023C3F8084338BD00BFC6
:1016B0000040015080800050808100500090005018
:1016C000809000508091005000700150014B1B68C9
:1016D000184700BF0C00002007B50B46002102464A
:1016E0000091034800F006F803B05DF804FB00BF6A
:1016F000CD1600002DE9F04F82464FF000098DB065
:101700001D46531E01910393039B58785C1C2528AA
:1017100019D100204FF0FF381E46444603460236DA
:10172000029031780396392955D81F2914D80029F9
:1017300000F0EF8101992520D04701993078D047FA
:1017400009F10209E0E7002800F0E3810199D047A0
:1017500009F101090394D7E7A1F12002192AE9D878
:1017600001A757F822F000BFD1170000351700007D
:1017700035170000D1170000351700005118000080
:101780003517000035170000351700003517000029
:101790009D180000D117000035170000B118000097
:1017A0005D180000351700006B1800008B18000052
:1017B0008B1800008B1800008B1800008B1800009D
:1017C0008B1800008B1800008B1800008B1800008D
:1017D00008460136A5E7582900F0EB80A1F1630225
:1017E000D7B2172FA6D8172AA4D801A757F822F0E6
:1017F000591A0000D71800003517000035170000EF
:1018000035170000B7180000D71800003517000082
:1018100035170000B7180000351700003517000015
:10182000351700008D19000035170000351700002E
:101830002D1A000035170000D718000035170000DA
:10184000351700008D19000035170000B71800008B
:1018500025200199D04709F1010955E7029A4FF077
:10186000000802F0FE020292B3E7002C0DDAB8F194
:10187000000F0DDA029A002A00F043810A2224EABE
:10188000E47402FB0414303CA3E7B8F1000FF5DB6D
:101890000A2202FB0812A2F130089AE7B8F1000F01
:1018A00055F8042B80F22F81002A80F22E815442B9
:1018B000022202928DE7682903D1682B06D14823C2
:1018C00087E76C2902D16C2B00F02181002B7FF47B
:1018D00031AF0B467DE77A2B06D1752955F8046B9D
:1018E00014D14FF0000B0CE06C2BF6D04C2BF4D144
:1018F000073525F00703752903F10805D3E9006BC7
:1019000006D120283BD1854F013C09E04FEAE67B18
:10191000BBF1000FF5DA7642814F6BEB4B0B013CCC
:101920000DF12D03059300230493304659460A22F6
:101930000023FEF707FC059BB446303203F8012D67
:101940005A460593049BBCF10A0F8B4672F10002C4
:1019500003F1FF3106460491E7D2C3F1010B3033A6
:101960000DEB0306B8F1000FA6F104066DDA029B39
:10197000D9077DD4A8EB0B03A4EB0B0413E02B28B1
:101980000ABF684F684F04F1FF34C9E770290FD1CF
:1019900055F8042B0023FAB96FF004034FF0050B40
:1019A000614F624E053C029A920770D4A04666E0F1
:1019B00078216C2B03D1002355F8042B08E04C2B25
:1019C000F9D1073525F007031D465B6855F8082B4C
:1019D000232825D1880621D5554F023C002601F049
:1019E0006001A1F1390B0DF12D0E02F00F01092953
:1019F00088BF594430310EF8011D102A4FEA1211E8
:101A000041EA03714FEA131C73F1000306F1FF3042
:101A100008D2C6F1010B06F13003A1E7454FDCE720
:101A2000414FDBE706460A466346DEE755F8046B9E
:101A3000304604F058FEB8F1000F834602DB404503
:101A4000A8BFC3464FF00008374FA8EB0B03002B8D
:101A500092DDA4EB0804A6E755F8043B4FF0010B18
:101A60008DF81830304F4FF0FF33013C06AE9AE747
:101A7000A046EAE7029320200199D047029BB8F1E3
:101A80000108F7D524EAE472013C9144A41AB8464F
:101A900006E0049302920199D047029A049B904673
:101AA000424612F8010B0028F3D11A46013A15D527
:101AB000002BACBFC7EB03077F425B46013B15D54C
:101AC000BBF1000FA8BF5F4426464F44013E14D52A
:101AD000002CA8BF3F1907EB080915E604930292F2
:101AE00030200199D047049B029ADFE702930199C5
:101AF00016F8010BD047029BE0E701992020D04760
:101B0000E4E70122D5E6904663E6144661E64C23FD
:101B10005FE648460DB0BDE8F08F00BF19960000A3
:101B2000179600001B9600004097000023960000C7
:101B30001D96000020960000044608B54FF02002D4
:101B4000EFF3118382F31288BFF36F8F02F09EF9D7
:101B5000204601F027F9034804F0ECFB01F0ECF912
:101B6000FCE700BF299600002DE9F043079D15B959
:101B70001560002012E00324B5FBF4F404EB4407E5
:101B8000BD4218BF0134B4F1804F09D2A400013422
:101B90008C4200D838B96FF00B001460BDE8F083B8
:101BA0004FF0FF34F7E704460021DFF8B4E0B94214
:101BB00003F1030C04F104062BD3A942274623D2D8
:101BC00001F1010CAC451F7828BF002324494FEADE
:101BD000A70E38BF5B7811F80EE0AC4584F800E042
:101BE00001EB131E2EBF3D239B0003F03C034FEA85
:101BF000071738BFCB5C07F030071EF80770A370DB
:101C00003D2367703746E3700023381A10603B703D
:101C1000AFE71CF8034C1CF8023C4FEAA4091EF87D
:101C2000099024011CF8018C04F0300406F8049C8F
:101C30000EEB131919F804409B0006F8034C03F04F
:101C40003C030EEB9814E35C08F03F0806F8023CF6
:101C50001EF80830344606F8013C03316346A6E717
:101C6000D29600002DE9F04300273C463D46DDF8C2
:101C70001CE0DFF8288175451FD3E4BB0020146009
:101C8000BDE8F0830136764533D013F806C0BCF1C9
:101C9000200FF7D0AEEB0609B9F1010FA6EB050551
:101CA0000DD0BCF10D0F0AD103EB060999F8019094
:101CB000B9F10A0F6ED1751CDDE72E46E3E7BCF1E2
:101CC0000A0FF8D02DB9BCF13D0F05D10137022F15
:101CD0000DD96FF01500D3E71CF0800FF9D118F87B
:101CE0000C507F2DF5D03F2D01D8002FF1D10134BC
:101CF000E1E73546C1E74FF0060C04F00706E408BB
:101D00000CFB06F60CFB04F40736E41B04EBD604CC
:101D100070B18C420CD80027014603263C46DFF800
:101D20007CE0DFF87C801D449D4205D10C1AA5E7BC
:101D30006FF00B001460A3E713F8019BA9F10A0CE4
:101D40005FFA8CFCBCF1160F04D848FA0CFC1CF0AE
:101D5000010FE9D01EF809C00134BCF1400F08BFE3
:101D6000013E0CF03F0C042C4CEA8717DCD17EB10D
:101D70003C0C012E0C7002D101310024D4E7022E5C
:101D80004FEA17244C7016BF8F7002310331F4E70D
:101D90003446C9E7002DA2D09BE700BF5296000051
:101DA000F6FFBFFF2DE9F047058B04462807904654
:101DB00011D4022905F0070540F0CD80204604F03B
:101DC000C6FA78B10138218B042811D8DFE800F079
:101DD000C3106D85950001290CBF45F0100545F035
:101DE0002005258388F31188BFF36F8FBDE8F08746
:101DF00001F0070AAA4500F0A6800027B9463E4632
:101E0000A368002B00F0BD8041F00801218388F316
:101E10001188BFF36F8FA168002900F0BB800D68A7
:101E2000002900F0B780334652462046D1F804809E
:101E3000C047002D76D02B6829461D46F0E701F0FB
:101E400007035A1F012A1BD8002221F00701062B85
:101E5000276889B2C4E9002209D13B4603E0628BBE
:101E6000013262831B68002BF9D141F00201204648
:101E7000218304F06CFA00287BD041F0200177E048
:101E8000042B0AD121F0070189B22046218304F0F6
:101E90005EFA10B141F020012183218B01F0070A85
:101EA000AA4550D00027B946AAE7236921F00701C7
:101EB00041F00601062DD3F8009021832DD1B9F110
:101EC000000F40D041F00801218388F31188BFF34F
:101ED0006F8F20463949C84729E021F0070123695F
:101EE00041F0040189B2042DD3F804902183E6D097
:101EF00000274FF0040A3E4682E721F007012369DC
:101F000041F0050189B2052DD3F808902183D6D080
:101F100000274FF0050A3E4672E700274FF0060AF9
:101F20003E466DE72B4687E7B9F1000FD1D14FF060
:101F30002003EFF3118883F31288BFF36F8F238B95
:101F400023F008032383258BEA062ED525F0100302
:101F5000238305F007056669218B002EBFF66FAF5E
:101F600000232768C4E9003321F0070141F0010193
:101F70002183218B4FF0000901F0070AAA457FF465
:101F80003FAF002F9BD041F00801218388F31188D7
:101F9000BFF36F8F002FC7D03D6839463346524696
:101FA000204604F000FA2F46F4E7AB067FF51AAF9F
:101FB00025F02003238305F00705FFE6D363000027
:101FC00070B5114B0D461C68DCB1104B196800232D
:101FD0008B4202DB6FF0010070BD224612F8106BDD
:101FE000864202D014460133F2E7E06810B96FF080
:101FF0001200F1E706F0DAFC0028F8D000202C608F
:10200000EAE76FF00C00E7E710000020E88C000022
:1020100070B588B005460C46C0B269461646FFF753
:10202000CFFF00281BDB0098C8B1436822680293E9
:1020300083680195CDE903360023CDE90623059396
:10204000C56804F06BFA6DB12846084901AA04F08E
:10205000A8FC079808B9059B236008B070BD6FF015
:102060001500FAE76FF01200F7E700BFB765000050
:10207000014803F063BD00BFBC8D0000F7B5254EDD
:1020800030688368DB6B03B1984730688368DB6A2C
:10209000002B31D1204C214D306883681B69002B07
:1020A0002DD001220DF107019847012827D123687F
:1020B00043B92B682BB369681A688B422A6000D138
:1020C0006A602360164A9DF8070011887F2904D8AA
:1020D00023684F1C0B44178018720A28DCD100209B
:1020E00023681188186059600E494D6875B9C1E9B7
:1020F000003310802060CEE798470028CAD103B093
:10210000F0BD4521084804F0FCF9F8E72B604B606E
:10211000EFE700BF981A002040160020501600205C
:10212000C81B0020481600201297000010B5044B71
:10213000044618688368E1B25B689847204610BD82
:10214000981A0020F8B50546164608464FF02003B9
:10215000EFF3118783F31288BFF36F8F1B490B686E
:102160004BB11B4C62689A4205D000221A6062682B
:1021700062B9C4E90033174A136853B987F3118869
:10218000BFF36F8F18460B603360F8BD1360636058
:10219000F1E7D2F804C01C686345146008BF5460BE
:1021A00087F31188BFF36F8F5C680B60A042D8BFC4
:1021B00000F1FF3403F108012246284604F0C1FA79
:1021C0000023601C2B550123DEE700BF44160020CE
:1021D0005016002048160020002313B51C46204945
:1021E000204AC1E90033C2E900331F4A486814603D
:1021F00020BBC1E900220133082B02F18802F5D18E
:102200001A4C1B48206006F0D1FB28B32068836875
:1022100023B11B6C13B100221649984720688368CC
:10222000DB6A0BB1984760B1206883681B69002B9B
:10223000FAD001220DF107019847F4E702604A60E5
:10224000D9E700220C4B20681A8083681B6A03B10F
:102250009847002002B010BD4FF0FF30FAE700BFF2
:10226000501600204816002058160020981A00200A
:10227000708A00007D200000C81B002041F204434A
:102280002DE9F043EFB0ADF8083040F60613002515
:10229000ADF80C30DFF81091444BD9F800101B68F2
:1022A000434E4D70A3EB06080B7828465A1C62F388
:1022B00002030B7098FA98F34B808B8808225BBA64
:1022C0008B8004F021F831464246ADF8100004F04E
:1022D0001BF802271FFA88F440BA04F10A035BBA1C
:1022E0000222ADF810000DF1120106A8ADF812306F
:1022F00004F027FA0822D9F800100DF11A00ADF801
:10230000127004F01EFABDF8120006AB083080B25D
:1023100031464246ADF81200184404F012FABDF8F6
:1023200012303A461C44A0B22C4606ABADF812005F
:1023300004A9184404F005FABDF81230ED213B441D
:102340009BB2ADF81230009305AA06AB32A8FFF796
:102350000BFC059B174E184FADF81230BDF812302C
:10236000A34206DC4921154804F0CBF86FB0BDE864
:10237000F083336802215B68A4B903A89847BDF8CD
:10238000125033682D1B7C2DA8BF7C2532AA101952
:1023900029465B6898473368012138465B682C44BE
:1023A0009847DBE702A8E9E7FC1A0020B41A0020EE
:1023B000CA340020001B00203F9700005097000007
:1023C00038B505460A4C0A21204606F0D6FA022204
:1023D0002046084906F0C4FA2946204606F09DFA30
:1023E00020460A2106F0D1FABDE83840FFF746BF83
:1023F000B41A002058970000F0B583680C469A4242
:102400000646114685B01DD294421DDC02AA03F097
:1024100006FDB8B9DDE902531D446B1ECDE900305D
:10242000224649210B48E3172F1B04F06AF83A466D
:102430002146304604F09DF8024640B14521064849
:1024400004F05FF86FF01504204605B0F0BD2C468F
:10245000FAE700BF5B9700007A9700002DE9F0478C
:102460004FF0FF34D4B00B46059406940794012135
:1024700000240246CDE90144009130A80421CDE9B1
:10248000084405F08FFF2146402220A804F064F99B
:10249000904B03211C93052304221D938E4B06AF02
:1024A000CDE91E378D4B8E4821938E4B05AE23937D
:1024B0008D4B07AD26938D4BCDE92B01CDE928350A
:1024C000CDE92D360AAC279109AB1CA930A8229280
:1024D000249404F0A5F848B303252A4649218448EA
:1024E00004F00FF80A21834806F047FA82490222D5
:1024F000804806F035FA29467E4806F00EFA4DB9B6
:10250000774903227B4806F02BFA7C4B79481968FF
:1025100006F00DFA0A21774806F037FAFFF7AEFE0B
:10252000089803F0FBFF54B0BDE8F0873368D4E9A6
:1025300000845A1CD0D0B8F1000FCDD0704A2BB90E
:102540003968B1F1FF3F18BF0B46136000211068D6
:10255000FEF71AF808A9C0B2FFF732FD0028BBD178
:102560003368664F002B53D1089E3B603046D6F847
:10257000089003F00CFD634A0146304603F04FFC1F
:1025800028B14521604803F0BCFF0125A5E72B6871
:102590004B45A1D85D4A10605D4A13603A685B4DB7
:1025A000224429680898013AFFF726FF002828608E
:1025B00092DB089803F0F1FFB4FBF0F303FB10404B
:1025C0003A68C1B2DFF84891641A1319D9F800507B
:1025D0001944A94238BF002049215FFA80FA4D48CA
:1025E00003F08FFF089803F0D8FF012806D9089858
:1025F00003F0D3FF013818EA000F4BD123464246BF
:102600003968089803F0A0FF00287FF465AF2EE03A
:102610003A68934201D000255FE73D4A234412689F
:102620009342BBD958E7A642089888BFE6B203F0A8
:10263000BBFF402201460CA804F08EF8324641460A
:102640000CA804F07EF83346396808980CAA03F009
:102650007BFF054600287FF440AF3B68B04433441D
:102660003B60A41B089803F098FFA042DBD9BAF1A5
:10267000000F11D13B68D9F8002053442344934202
:102680003B60C8D11F4B08981A681146FFF7B4FE8B
:10269000C50F22E74026E5E7089803F085FF0822EA
:1026A00001460CA804F058F8524608EB04010CA8A7
:1026B00004F047F8089E39683046651803F06DFF4E
:1026C000294603460CAA304603F03EFF00287FF45B
:1026D00003AFCFE7449400004F8600009C970000B2
:1026E000A597000059860000A197000055860000BC
:1026F000C9970000B41A002058970000AC1A0020B7
:10270000B01A0020A41A002091910000A01A002005
:102710009C1A0020A9970000F0B50C68164F85B0F0
:1027200002380D46C4F580610090144B381903AA95
:102730000131FFF797FA0446D0B92B68039A134486
:10274000022B2B6011D93E88023B76BAB6B29E426C
:102750000BD13246B91C03F0D7FD30B9022E04D993
:102760002B689A1E2A60FC540124204605B0F0BD57
:102770004FF0FF34F9E700BF6F35002072390020B9
:10278000002307B502210093034AA423034806F05F
:10279000FEF803B05DF804FBCA340020B41A002030
:1027A0002DE9F04707290446B0B071D9037813F03A
:1027B000050F6DD14388A1F108055BBA9BB2AB420E
:1027C00066D37A4B186083885BBA8380FFF7D8FFA3
:1027D000A088012840F0D780E37943B1012B00F0B5
:1027E000CA80082030B0BDE8F047FFF7E9BD247883
:1027F00014F00704F5D101466D4806F0BEF8062234
:102800006C496B4806F0ACF80521694806F0B1F850
:10281000694E6A4FDFF8A88121460020D6F8009063
:10282000FDF7B2FE08A9C0B2FFF7CAFB054620BB00
:102830002023014610AA089803F071FE109BBB42AA
:1028400013D1FEF723F94023019320AB824629469A
:10285000009310AA089B2846CDE903550295FDF781
:10286000ADFE81465046FEF721F9D8F80030089DAC
:102870004B4512D0284603F051FE64B105214C4867
:1028800006F07FF801214A4806F07FF8FFF7F6FCD2
:1028900030B0BDE8F0870124BEE700232A4600934C
:1028A00010A94FF6FF730AA803F0D2FA002847D008
:1028B0004FF0FF35089803F031FE14213C4806F034
:1028C0005CF8404904223A4806F04AF82146384864
:1028D00006F02DF84DB904223B49354806F040F882
:1028E0002022334818A906F032F807223749304829
:1028F00006F036F8BDF85630402101939DF855306A
:10290000334A009320A89DF8543000F04FFB169BEB
:102910004BB1421E3E2A06D820ADC0F140012D4ADF
:10292000284400F043FB20A803F0DDFE20A9024666
:102930001F4806F015F814211D4806F026F89CE7FC
:102940000DF11E0307AA09A90AA803F0CFFA00286F
:10295000AED1BDF81E30102BF2D1BDF81C30202BAB
:10296000A6D12846099918AA03F0D9FD051E18BF5B
:1029700001256D429EE7294604F1080030B0BDE80C
:10298000F047FFF76BBD00287FF42BAFE379012BF5
:102990003FF428AF052B7FF424AFFFF711FD0E485D
:1029A00005F0FFFF0120FFF7C7F800BFFC1A002069
:1029B000B41A0020D7970000040000203DB8F39619
:1029C00008000020DE970000E3970000E897000071
:1029D000F0970000FC97000090D0030001232DE940
:1029E000F743002407462D4E2D4D33702D4BDFF855
:1029F000B8800094186000F09FFADFF8B090C9F832
:102A00000056C4F58061C9F80456C9F80856C9F8DB
:102A10000C56C9F81056C9F81456C9F81856C9F812
:102A20001C563B6801AA013108EB040098470028B6
:102A3000019B00DC6BB3044453B940F201439C4258
:102A400023D1337813B903B0BDE8F0830024D6E76F
:102A500098F80030062B0AD198F80130092B0CD1D8
:102A6000002300936946A01EFFF756FE05E0042BE5
:102A700003D198F80130142BF4D00128E1D100994A
:102A80000B480239FFF78CFEDBE73378002BB6D119
:102A9000D9E73378002BAED1D5E700BF6E350020E3
:102AA0003546526E001B0020703900200080015016
:102AB0007135002030BFFFF7FDBF00BF704700BF7A
:102AC000154B9A6A12F0007F9A6A14BF1E201D20CF
:102AD00012F0807F9A6A18BF1F2012F4801F9A6A32
:102AE00018BF022012F4002F9A6A18BF212012F496
:102AF000802F9A6A18BF222012F4003F9A6A18BFEA
:102B0000232012F4803F9A6A18BF24206FEA024201
:102B10006FEA12429A62704700ED00E010B5194B5F
:102B20000246986A9C6A10F4805F14BF1720162032
:102B300014F4006F9C6A18BF1820A40509D5986B7F
:102B4000986A000404D51AB19A6A22F400429A6283
:102B500019200C4B9A6A12F4806F9A6A18BF1A20D7
:102B6000D2050CD49B6A13F4005F18BF1C20054AE1
:102B7000936A43F47F43936200230B7010BD1B20C4
:102B8000F5E700BF00ED00E010B51C4B0246986A67
:102B90009C6A10F0100F14BF1120102014F0080FC1
:102BA0009C6A18BF1220A40709D5586B986A0006C2
:102BB00004D51AB19A6A22F080029A6213200F4B50
:102BC0009A6A12F0010F9A6A18BF142012F0200FAF
:102BD0009A6A18BF1520D40658BF9B6A074B9A6A99
:102BE000920642BF5A6A22F400525A629A6A42F02E
:102BF000FF029A6200230B7010BD00BF00ED00E0E1
:102C000070B5444B06465B6800258AB0C3F30803E1
:102C100085F31188BFF36F8F02F07F40B0F17F4FD3
:102C200011D102F00C0008280DD010074CBF0E4641
:102C300001250022033B8DF80720032B05D8DFE890
:102C400003F01E5C60592E46F3E700249DF8073020
:102C50009BB92022314602A803F073FD099B002D89
:102C600053D0C3F3080222B96FEA53236FEA432318
:102C70000993204602A903F025FD0AB070BD254B3B
:102C8000DA6A9107E1D4DA6A002ADEDBDA6A5200F6
:102C9000DBD55A69B16942F480725A61BFF34F8F34
:102CA000BFF36F8F5A6931F8021C22F480725A61A7
:102CB000BFF34F8FBFF36F8F4DF60272914209D071
:102CC0009A6AD2B242B101200DF10701FFF75CFF11
:102CD0000446BBE73468B9E79A6A12F47F4F05D01F
:102CE00001200DF10701FFF719FFF1E79B6AB3F52A
:102CF000803FAAD3FFF7E4FEEAE700200DF10701C9
:102D0000E4E700200DF10701EDE723F4FF7323F062
:102D10000103ADE700ED00E0044B5A6942F01002F8
:102D20005A615A6942F480625A61704700ED00E0CE
:102D3000EFF30880EFF3098101B57246FFF760FFFA
:102D400001BD00BF002080F31488BFF36F8F002007
:102D500080F30A8880F30B8800F054F900200E49B4
:102D60000860BFF34F8F0D4880F3088800F02CF8FF
:102D7000202080F311880A484FF40061401880F346
:102D80000988EFF314800221084380F31488BFF30D
:102D90006F8F00F091F8000094ED00E0986D002036
:102DA000983D0020BFF34F8F0549064BCA6802F4D7
:102DB000E0621343CB60BFF34F8F00BFFDE700BF5E
:102DC00000ED00E00400FA0572B6002383F31388D7
:102DD0004FF0FF300C4A03F120010133102B42F871
:102DE0002100F8D100234FF0FF30074A03F16001C2
:102DF0000133102B42F82100F8D162B6BFF34F8F98
:102E0000BFF36F8F704700BF00E100E01EF0040FBA
:102E10000CBFEFF30880EFF30980816911F8021C01
:102E20000229FFD001B503F04FFC01BD40B20028DC
:102E300007DB01234109034A00F01F00834042F8E9
:102E40002130704700E100E040B200280CDB012295
:102E50000649430900F01F008240203341F8232037
:102E6000BFF34F8FBFF36F8F704700BF00E100E0EB
:102E7000054B420953F82220012300F01F0003FAFA
:102E800000F01040704700BF00E100E040B20028B1
:102E900001F10101ACBF00F16040064B4FEA411166
:102EA000C9B2ABBF00F5614000F00F0080F800131D
:102EB0001954704714ED00E00B4A08B50B4B22F093
:102EC0007F029A60BFF34F8FBFF36F8FD3F88820D4
:102ED00022F47002C3F8882002F0D6FC02F018FD3C
:102EE00000F044F802F0DCFC0000000000ED00E01F
:102EF0000446084611461A46002383F30B880A4B02
:102F00002025A3F5205686F30B8883F3098863B642
:102F10004FF0000383F31188BFF36F8FA04785F351
:102F20001188BFF36F8FFEE7986D002001491022D2
:102F30000A60704710ED00E072B6404080F31188DF
:102F4000BFF36F8FBFF34F8F30BF62B6BFF36F8F8A
:102F5000704700BF72B6494081F31188BFF34F8FAD
:102F600020BF80F3118862B6704700BF0023202184
:102F70000348C2180133412B82F80013F9D170477E
:102F800000E100E001B5EFF30580A0F110004FEA89
:102F9000C0000449014409C99847BDE801400249FD
:102FA00008470000988A0000BD2A00000CB410B544
:102FB00086B009B90DF10B000024CDE9040109AB7D
:102FC000089A009404A905480393FEF793FB049B19
:102FD0001C7006B0BDE8104002B070476B6700007F
:102FE0000122024B0020C3F8402570470090035097
:102FF00020B1034B800143F001031847704700BF25
:10300000B08C000001F080BE084B70B5C31A0D46AD
:1030100007499B10044659434022064803F0CEFB63
:103020002B4601462046BDE870401847181B00207B
:10303000B76DDBB6488A0000402373B50B4C009394
:10304000041B0B460D460A49A41061430646094A73
:10305000094803F0DFFB011E05DA30462B4602B0BB
:10306000BDE87040184702B070BD00BF181B0020BB
:10307000B76DDBB685680000488A000010B54FF0D8
:103080002003EFF3118483F31288BFF36F8F074A95
:10309000136823F00201DB07116002D4012005F060
:1030A000B6F884F31188BFF36F8F10BD681B002042
:1030B00070B50022012104460520FFF7E7FE0F4806
:1030C00001F01AFF0E4B984215D101F025FF266939
:1030D0000C49304603F08BF900280BDB01253564E1
:1030E0002469084904F11C0003F081F9002801DB80
:1030F0000020E56470BD6FF00400FBE73D31000087
:103100000000AD0BC48D000001460C2300224B4390
:1031100070B50848C41840331844D4E90E56A26369
:1031200003F039FB2DB132462B46BDE87040024812
:10313000184770BD181B0020488A000010B10128F4
:1031400004D07047034B1B6C5B0701D1FFF7DCBF5A
:10315000704700BF181B002008B54FF02003EFF3A5
:10316000118183F31288BFF36F8F124A136843F003
:1031700002001060DA0708D481F31188BFF36F8F63
:10318000BDE80840012001F0DBBE4FF05023D3F82A
:103190000C24D3F80C34DB07EED5074803F0FBFA18
:1031A00081F31188BFF36F8FBDE808400020FFF75F
:1031B000ABBF00BF681B0020581B00202DE9F8435F
:1031C000012207463449D1E8EF3FC1E8E02F00284B
:1031D000F9D133B9314932484B60CB608A6003F092
:1031E00019F97B1E012B2DD8012F07D14FF0502349
:1031F000D3F81C3403F00303022B23D005F0F5FBB6
:10320000054608BB274B1B78F3B14FF05023022231
:103210000646C3F808234FF050244FF00008DFF8AB
:103220008890D4F81824D4F81834D20316D503F0B3
:103230000303022B01D0012F10D13DB386F3118877
:10324000BFF36F8FBDE8F8834FF02003EFF31186D3
:1032500083F31288BFF36F8F0125DCE73046FFF759
:1032600079FED4F81835DBB2012BDAD1D4F8042179
:10327000002AD6D0C4F80481D4F804210222C4F86C
:1032800018252022C9F88021A360CAE74FF05023F7
:103290000222C3F80423D5E7141B0020041B0020DE
:1032A000341B0020933D002000E100E0024B0B6046
:1032B00001231360704700BF6C1B0020004870475B
:1032C000188E000010B505F006F8034C206004F0DD
:1032D000FFFF6060002010BD6C1B0020F8B50E469B
:1032E0001946304617461D4603F0DBFAB8B146EAE8
:1032F000050414F0030412D14DB12B19032BA6EBD6
:10330000040006D8074AD2F80034DB07FBD50020BA
:10331000F8BD3B1B196802F03BFA043CEDE76FF087
:103320001500F5E70090035038B545682B69B3B137
:103330001035284602F0F4F8044680B901462846C4
:1033400002F0B8F8084B98420BD1224628460749AC
:1033500002F098F8224605210D20FFF797FD002086
:1033600038BD6FF00400FBE70000AD0B71330000C7
:10337000430970B507D10B4B596821B101250C6881
:10338000094E854001B970BD8A682A4002D0304696
:103390004B6898471CB1236821461C46F2E7234638
:1033A000FAE700BF741B00205C8A00002DE9F0439F
:1033B00040F206354668D00648BF0320337B02EA58
:1033C000050558BFC2F3401087B001F01F07B5F5DF
:1033D000837F144647EA43178DF8030041D00FD886
:1033E000062D18D007D8B5B1022D3CD06FF01500CE
:1033F00007B0BDE8F083B5F5807FF7D101250AE07D
:1034000040F20222954230D0B5F5407F2FD0B5F57D
:10341000007FEBD1022522032BD5012372688B405C
:103420009360326962BB07F01F037F0975D13D4A83
:1034300084F4803102EB8302D2F80032C1F3004100
:10344000C4F3404423F4E16344EA410423F0070356
:103450001C4344EA800444EA0524C2F800420020E8
:10346000C6E70725D7E70425D5E70525D3E70325D4
:10347000D1E7630341BF012372688B40D360D0E77B
:103480001036394630460DF1020202F001F814F40C
:10349000403F80460CD13946304604F012FF224BA3
:1034A0009845DCD130469DF8021002F043F8D6E78B
:1034B0004FF0000901AB3946304603AACDE9043983
:1034C000CDE90199CDF80C9001F0B6FE164B98426B
:1034D0008CD114F4003315D09DF8033084F480347B
:1034E000C4F300448DF80E3039464B46304603AAEB
:1034F0008DF80C508DF80D4001F04CFF0A4B9842AE
:10350000CDD073E7CDE9043339460DF103033046DE
:1035100003AA039301F090FEF0E7803352F82330C2
:10352000FFDE00BF002584500000AD0BF0B5406801
:1035300001F01F04057B87B044EA45140569002D9E
:103540005FD0B2F5001F00F1100506D121462846D4
:1035500004F0B9FE002007B0F0BD0027B2F5800FDF
:1035600001AE0197776037D1B3F1007F14BF052317
:1035700004238DF804300023CDE9046303938368AA
:1035800023FA01F111F0010118D1B2F1A07F15D198
:1035900004F01F03620903F1800338D11D4A52F879
:1035A0002330DB070AD40DF10306324621462846B4
:1035B00001F06EFF184B984219D00296214628461A
:1035C00003AA01F039FE154B98421DD10122214674
:1035D000284601F0BBFFBDE7B3F1C06F05D0B3F1E2
:1035E000007F14BF01230223C3E70323C1E7314651
:1035F000284601F0A5FF094B9842DED06FF00B0082
:10360000A9E76FF08500A6E76FF01500A3E751F872
:103610002330FFDE002584500400AD0B0000AD0B0D
:103620002DE9F043594D5A4E5A4F00EB810181422A
:1036300002D10020BDE8F083046814F4805FC4F375
:10364000432C04F07F0340F08F807F2B4FEA14441B
:1036500008BF4FF0FF3315F80CC0192C00F287801B
:10366000DFE804F00D13191C1F251C8585858536A0
:103670006185858585858585858564797C7FC2F8AA
:103680000C355C1C5CD10430D1E7C2F814355C1CED
:10369000F9D000245DE0C2F80835F2E7C2F8103531
:1036A000F5E75C1CC2F80835EDD0002404E05C1C92
:1036B000C2F80C35E7D001245FEA531E5AD14FF00F
:1036C0000108DFF8CCE008FA03F9CEF80C900AE024
:1036D000C2F80835BCF1000FD9D15C1CD3D000244E
:1036E0004FF0060CA046D0F8009009F4005EBEF141
:1036F000000F1CBF4FF00008012403F01F0E5B09F0
:103700003ED106EB8E0EDEF80032C9F3C1193B4004
:1037100043EA890343EA0C2343EA080343EA4403E8
:10372000CEF80032AFE7C2F80C35D3E7C2F8603507
:10373000B3F1FF3F0468A6D0C4F38034002CBAD0A4
:103740005C091AD10124DFF848E004FA03F8CEF846
:103750000880A046C7E7C2F86435E9E7C2F86835D3
:10376000E6E7C2F86C35E3E76FF0150062E76FF04B
:1037700085005FE70023DB60FFDE00239B60FBE743
:1037800000230EF1800E53F82E30F5E73A98000032
:1037900000258450F0F8FCFFF8B504460D46076993
:1037A00005F023F990B91F4B1B787BB16426606844
:1037B00003F04AFAE0B9012004F0C7FC013EF6D15B
:1037C000F4E781F31188BFF36F8FEFE74FF0200329
:1037D000EFF3118183F31288BFF36F8F60680E4699
:1037E00003F032FA90B981F31188BFF36F8FEDE7E0
:1037F0004FF02003EFF3118183F31288BFF36F8F33
:1038000060680E4603F020FA0028DAD07B690122B6
:103810001D702046796903F057F986F31188BFF3CC
:103820006F8FF8BD933D00202DE9F74306464FF01A
:103830000008002201210820FFF728FB0820FFF7DD
:10384000F5FA776835693C684146C4F800852E6012
:10385000D7F80C9001AA484603F01CF9002839DB80
:10386000019BD9F8002019791868FFF7D9FE0028C4
:1038700030DB6B7AD6F810C0012B03D0032B27D195
:103880004FF01008AB7A032B22D1E97A09B1012954
:103890001ED12A7A12B1022A1AD10E226B687068E0
:1038A000B3F5164F006800F0B28034D8B3F5165F58
:1038B00000F0B0801AD8B3F5966F00F0AD800CD848
:1038C000B3F5967F00F0AB80B3F5167F00F0AA80C9
:1038D0006FF0850003B0BDE8F083B3F5166F00F01C
:1038E000A480B3F5965FF3D15C4B43E0B3F5E14FB1
:1038F00000F09E8008D8B3F5615F00F09B80B3F5BF
:10390000964FE5D1564B35E047F6122E7345DFD181
:103910004FF400032EE0B3F5613F00F08D8015D821
:10392000B3F5963F00F08B800AD84DF6C02E734554
:1039300000F08780B3F5614FCAD14FF46B0319E0F3
:10394000B3F5E13FC4D14FF0EB7313E0B3F5612F52
:103950007AD009D8DFF80CE1734578D0B3F5E12FC0
:10396000B6D14FF0E86305E0DFF8FCE07345AFD176
:103970004FF08053C0F82435736841EA08011B6892
:103980000A43C3F86C250CF10403D5E9010183E86F
:1039900003007B68990712D505F11C0001F05AFB62
:1039A000324B984256D1287F04F10C0204F59071F5
:1039B00004F0CDFB01202B7F984001F097FA0823FB
:1039C000C4F800353B7A53B9C4F81031D4F810313B
:1039D000AB69C4F834350123C4F8383523607B68FB
:1039E00000209A075CBF4FF48073C4F804337B68EF
:1039F000DB0644BF4FF48003C4F804336B69C4F89A
:103A000044350123C4F84805A360E36062E74FF43E
:103A10001D03AFE7164BADE74FF49E23AAE74FF423
:103A2000A033A7E74FF41C33A4E74FF41D23A1E70D
:103A3000104B9FE7104B9DE74FF06C739AE70F4BCD
:103A400098E74FF4650395E74FF0706392E74FF006
:103A500080638FE76FF004003CE700BF00B0130005
:103A600000A04E0090D0030040420F000000AD0BBC
:103A70000050270000C0750000F03A0000903A01A5
:103A80000123834070B5DC430B4AD2E8EF1F01EA03
:103A90000405C2E8E65F002EF7D14FF48032824081
:103AA0000648C0F80823BFF35F8FBFF36F8F0B4248
:103AB00014BF0120002070BD841B00200050015065
:103AC00070B40E4922F07F46D1E90034D01AC318F1
:103AD00044F10004C1E90034A6F50013B3F5400F2A
:103AE00009D2074B1B681A0A1B069C19054B42F1A9
:103AF0000005C3E9004570BC01F06ABF4001002029
:103B0000881B002048010020D9B101230D4A8340C1
:103B1000D2E8EFCF4CEA030CC2E8E1CF0029F7D19D
:103B20004FF48033084A8340C2F80433074BD3E88C
:103B3000AF3FC340DB0742BF4FF40012044BC3F852
:103B400000217047841B002000500150801B002082
:103B500000E100E00D4B1868010A0006BFF35F8F1B
:103B60000B4BD3F80435181841F10001B3F5801F51
:103B70000AD2084BD3E90023904271EB030303D22E
:103B800010F1807041F10001704700BF881B0020D8
:103B900000500150480100202DE9F04F85B0164635
:103BA0001F4604469DF840A0FFF76AFF0190FFF70B
:103BB000D1FFB04271EB070352D23B4B301A67EB97
:103BC0000101984271F100014DD2384B03EB04130F
:103BD000D3E902239F4208BF964258D04FF4803861
:103BE000334908FA04F8204626F07F4BC1F8488391
:103BF00003F0D2F84FF00309584604F15005AD0028
:103C0000ADB205F1502504F5A87305F58035029392
:103C1000029A20F07F4341F82230C1F84483D1F862
:103C20000435244AC01A033820F07F4090422ED930
:103C3000286868B1D1F80435A3EB0B0020F07F4071
:103C4000B0F5000F039322D9204603F0A5F8039B9B
:103C5000BAF1000F07D109EB030009F10109D7E719
:103C6000BAF1000F09D06FF0150520460199FFF752
:103C70004BFF284605B0BDE8F08F01230E4AA34054
:103C8000D2E8EF0F1843C2E8E10F0029F8D1074945
:103C90000E982301C8500F9B01EB04120025C2E9C6
:103CA00002675360E1E700BF01008000300100209F
:103CB00000500150FDFF7F00801B00207FB50025D4
:103CC0004FF0FF304FF0FF31194C1A4B0226C4F869
:103CD0000833C4F84833184BC4F80855C3E9020147
:103CE0004FF480334FF40012C4F80433134B012116
:103CF000C4F804631520C3F880212A46FFF7C6F8EC
:103D00001520FFF793F801230D4AA3602360136089
:103D10000C4B0D4A009328460023CDE90155FFF7CF
:103D20003BFF3046FFF74AFA284604B070BD00BF9B
:103D30000050015003000F003001002000E100E0BE
:103D4000841B0020C13A0000FFFF7F002DE9F743EC
:103D50002E4BD3F8042390070BD5D3F8042142B19E
:103D60000022C3F804212A4AD3F80431136801332E
:103D70001360264AD2F80433D90327D5254BD3E85C
:103D8000EF1F21F00100C3E8E40F002CF7D1CB07AF
:103D900002D4D2F84031CBB100251C4CC4F84051BC
:103DA000D4F84031FFF7D6FE4FF02003EFF3118235
:103DB00083F31288BFF36F8F174BD3E90267B042CA
:103DC000B94106D282F31188BFF36F8F03B0BDE80B
:103DD000F0834FF0FF38D3E900104FF0FF391D603A
:103DE000C3E902894FF48033C4F84833C4F8405122
:103DF000D4F8403182F31188BFF36F8F0029E5D0EA
:103E0000009032463B4628468847DFE70050015085
:103E1000881B0020801B00203001002030B5431C8F
:103E2000124C85B005D08442A8BF0446012CB8BF0F
:103E30000124FFF78FFE0E4B0C4DD3E90013401AFF
:103E4000B0F5000F0FD22218AA4228BF2A46002040
:103E500052180849CDE90100009143F10003FFF732
:103E60009BFE05B030BD2A46F1E700BFFFFF7F0093
:103E700040010020C13A000008B5FFF76BFE024B7D
:103E80001B68C01A08BD00BF40010020012310B507
:103E9000074C15206360FEF7D7FF4FF40012054B67
:103EA000C4F80833C4F84833034BC3F8802110BD6D
:103EB0000050015003000F0000E100E030B58168C0
:103EC00085B0103921F00704054602F06DFB102281
:103ED0000146684602F040FC10226846064902F09E
:103EE00030FC10236A462146284602F02DFB00389C
:103EF00018BF012005B030BD7C90000030B50D46E4
:103F0000816887B0102302AA1039044602F007FB2B
:103F1000002802DA012007B030BD1022204602A995
:103F200002F069FF00283AD110221E4902A802F0CF
:103F3000E1FB00280CBF012302232B70204602F076
:103F400046FF012301460DF10702204602F0E7FA81
:103F50000028DFDB9DF80730204603F00F021B0925
:103F60006A702B7101220DF1070102F044FF10B9B4
:103F70006B78042B03D901236B7000232B71A2688B
:103F80002046183A22F00702083AA91C02F046FF20
:103F90000028BFD12046E91C02F099FFBBE70323AC
:103FA000CBE700BF7C900000F0B5354F85B04600F0
:103FB0000546694657F8260002F08FFF044610B107
:103FC000FF2005B0F0BD013657F8260002A902F027
:103FD00084FF012837D12A4649212A4802F091FA64
:103FE000294B8DF80C40029300229DF800609DF84B
:103FF0000870264C3146207802F0EFFE50B3394667
:10400000607802F0EAFE28B3A378042B03D09DF871
:10401000031099421ED1E378042B03D09DF80B10B6
:10402000994217D12379042B10D16279022A1DD12C
:10403000174B18482A46492102F063FA6079831E1B
:10404000022BBED9BCE70028CED0B9E79DF80210FC
:104050009942EAD00132032A04F10604CAD10E487B
:104060002A46492102F04DFA0120AAE7032A05D089
:104070000A4B0B49042A08BF0B46DAE7094BD8E77D
:10408000D48E00006F980000030103030499000020
:1040900051980000BA980000DE9800005698000081
:1040A000689800004C980000044B1B685840430877
:1040B0005B4240421843C017704700BF8C1B002072
:1040C0008842F0B504D00025084F0438AA4200D138
:1040D000F0BD3E6850F8044F5E4024EA060451F8F3
:1040E000256001351E4034430460EFE78C1B00203F
:1040F000044B1B68584043085B4240421843C017BA
:10410000704700BF8C1B0020F8B50E46C9880546D5
:10411000144603F0D1F90746D0B92046FFF7E8FF6F
:104120000446E4430F4B1A68B5F90430424023EAD1
:104130000203B6F9042002401343AB80F288034621
:1041400031682868FFF7BCFFF388EA88934201D3FF
:104150003846F8BD296851F82320224041F8232031
:104160000133F2E78C1B00202DE9F0470746884613
:10417000164699460024DFF834A0DAF80050DAF841
:10418000003008EBC4015D4085EA090585EA0400BA
:10419000FFF7AEFFC2433846D2B2FFF7B5FF10B902
:1041A0000134A642E9D1BDE8F08700BF8C1B002096
:1041B0002DE9F04F834699B00F4618460021164668
:1041C000039303F0DCFA002800F089810024012524
:1041D000774B30461493039915ABCDE90B45CDE9E8
:1041E0000D45CDE90F45CDE91145139303F050FA84
:1041F000A04228DABBF1000F05D1E7B90024204620
:1042000019B0BDE8F08F2146584603F0C9F90446BD
:104210000028F2D00BA803F041F90DA803F03EF9F5
:104220000FA803F03BF911A803F038F90C2115A8E9
:1042300000F02CFBE3E73146384603F07CF90446F6
:104240000028E7D1DAE731460BA803F074F90446F9
:104250000028DFD103990DA803F06DF9044600286A
:10426000D8D1F1880FA80231ADF83850ADF83050F0
:1042700003F022F904460028CCD101460FA803F030
:104280008FF904460028C5D1F18811A8023103F046
:1042900013F904460028BDD10DA803F0ADF900F0D4
:1042A0001F001F2873D0C0F11F0319460BA80193EC
:1042B00003F0C8F904460028ACD101990DA803F019
:1042C000C1F904460028A5D1BDF83250BDF83A80A6
:1042D0000DA8A5EB080A4FEA4A19494603F0B2F9BE
:1042E0000446002896D14FEA8A0A0DA90BA803F0CC
:1042F000FEF900284DDA49460DA803F0C0F904463E
:10430000002887D108F1FF3305939B0005F1FF3AA0
:10431000069305F1804508F18043023B013D9B0077
:10432000A5EB08050893AB000293059B9A4541D87D
:10433000BBF1000F0DD058460FA903F0FCF8002880
:1043400040F0C980039AB388928813FB02F3ABF85C
:104350000430002F3FF45EAF01990BA803F08FF9F2
:10436000002840F0B880B3880BA93846ADF830304B
:1043700003F0E1F80146002840F0AF80384603F032
:10438000FEF900287FF446AF0123BB8042E7019489
:104390009AE70F9A0BA952F80A300846013342F8FF
:1043A0000A300DAA03F0D0FA044600289DD031E768
:1043B000010003000D9B069A04931344DDF82C9032
:1043C0000793049B4FEA8A089A5859F82A10A8F1D3
:1043D00004030F9D0993029B91421D4476D2A8F1DC
:1043E0000400002359F80000FBF7ACFE002914BFBD
:1043F0004FF0FF330346BAF1010F2B600EBF0023CD
:1044000009EB080353F8083C1593A8F1040359F885
:104410000330169359F80830DDF8108017932B6895
:1044200001332B60089B98442B680021013B2B60D3
:1044300011A803F0B5F800284DD1059B002B48D0FA
:10444000D8F80020119B11A91A60079A0846126833
:104450005A602A6803F07CFA00283CD113A911A8FD
:1044600003F045F90028DFDC2A680DA911A803F044
:104470006FFA80BB029B11A84FEAC308414603F0C4
:10448000E1F840BB0BA9084611AA03F05DFA01460A
:1044900018BB0BA803F073F9002812DA0DA911A8B4
:1044A00003F049F8B8B9414611A803F0CBF890B928
:1044B0000BA9084611AA03F044FA60B92B68013B26
:1044C0002B60029B0AF1FF3A043B2DE74FF0FF33CC
:1044D00091E7059AB6E704469CE60C469AE66FF02B
:1044E0000B048CE62DE9F84F9246194A06461568EA
:1044F0000F464540ED43002B14BF994689460024E2
:104500000A9B04F10408434504D20A9B9C4214D33D
:10451000BDE8F88F0AEB040003F07DFC00EA060B0F
:1045200009EB040003F077FC00EA050141EA0B0106
:10453000381903F07BFC4446E2E71AF8043019F816
:10454000042033402A4013433B550134DDE700BFCC
:104550008C1B0020082804D00928034818BF00201D
:1045600070470248704700BF169900001999000073
:1045700001680E4A0346914215D1C169A2F1102289
:10458000A2F1EF1291420ED18268012A0BD8C268C3
:1045900012B101698A4206D0586928B19B691B1A79
:1045A0005842584170470120704700BF55AA00FF8C
:1045B00070B50D4B9E68A6B13046FFF7D9FF044693
:1045C00078B9F3686BB935690DB9204670BD2846D6
:1045D000FFF7CEFF28B9EB68B34202D12E462D6912
:1045E000F2E70124F1E700BF901B00202DE9F8431A
:1045F0003F4F3C68D4B1BC68C4B100284AD0002900
:1046000048D001FB00F5B5FBF0F0884242D1281DEF
:1046100040D8A9070DD025F003060436FC6803E056
:104620006368B34238D2A469002CF9D12046BDE8B2
:10463000F8832E46F2E7FB6041E006F120016318A3
:10464000203A5A600022C3E902242A4822691A61EA
:1046500060502949D96102B1D36062695A61A16988
:104660009961AAB193619A6902B153614FF001094E
:1046700023610023C4E90169C4E905333B69DB0711
:104680002ED5FFF795FF58B31C4B48461B6826E014
:10469000FB60E8E70024C9E7A3681BB1174B0120C2
:1046A0001B689847626804F12008921B232AC4D82B
:1046B0000123A360D4E90523002ABCD09361A36938
:1046C0000BB162695A610023C4E905333B69DA071B
:1046D00006D5FFF76DFF18B10120084B1B689847FE
:1046E0002A4600214046444602F036F89EE700BFC5
:1046F000901B002055AA00FF669911EE4C00002087
:1047000070B50546002800F08880444E3368002BC1
:1047100000F08380B268002A7FD0834203D8726899
:104720001344984203D33E4B01201B689847A5F1E0
:1047300020042046FFF71CFF18B1394B01201B68ED
:10474000984755F8183C012B03D0354B01201B68C6
:104750009847002345F8183C55F8143C3BB39A6839
:104760002ABB55F81C2C02F120015A680A445A60F1
:1047700055E905321A6155F8145C2B6903B1DD6007
:1047800020220021204601F0E7FF286910B183684C
:10479000002B2ED033699B073FD5FFF709FF002878
:1047A0003BD0BDE870401E4B01201B68184755F8F0
:1047B000100C00282AD0836843BB42686368134406
:1047C0002033636003692361D4E905239AB9CBB927
:1047D000436963618269A261B3B19C61A36903B15A
:1047E0005C61236903B1DC602022002101F0B4FF89
:1047F000D0E72C46E1E79361A369002BE8D062691A
:104800005A61E5E7F360F7E7F460E7E7F36845F836
:10481000083C03B15C61F460BCE770BD901B0020F4
:104820004C00002038B50C461422002105461348E0
:1048300001F092FF1249134800F040F8232C1CD9D4
:1048400015F003031FBF043CE418C3F10403ED1883
:1048500022460021284601F07FFF084B0A49C3E9A0
:104860000054203C9D606C609A6811609A68A1F1C8
:104870001021A1F1EF11D161DA6038BD901B002049
:1048800001470000ED45000055AA00FF10B50A469B
:10489000044619B1024B00211B68984710BD00BFA8
:1048A00048000020014B1B68184700BF540000203F
:1048B000014B1B68184700BF50000020024B1860D6
:1048C000024B002019607047540000205000002067
:1048D000F8B500F108064768044630460D4602F078
:1048E0008FFE87424BD16368B3F5807F47D80021A4
:1048F000304602F044FF002841DD0021304602F03E
:104900006BFEE0B345B9294604F1100002F037FF11
:10491000002834DD0020F8BD04F1200500212846E0
:1049200002F02DFF00282ADD0021284602F054FE67
:1049300028B304F128050021284602F020FF0028B2
:104940001DDD0021284602F047FEC0B1002104F120
:10495000100002F014FF002811DD002104F13000E6
:1049600002F00DFF00280ADD002104F1380002F0FA
:1049700006FF002803DD002104F14000C6E70148DE
:10498000C9E700BF80BFFFFF012938B505461446BF
:1049900001D0074838BD22B901230020C5E91C34E5
:1049A000F8E71046FFF7D6FD0028F5D1F1E700BF84
:1049B00000BFFFFF70B500210446FFF789FF0546E1
:1049C00010B10E4D284670BD04F10806304602F0C5
:1049D00013FE7F28F5D910342946204602F0FCFD4D
:1049E0000028EED0204602F007FE0128E9D9314622
:1049F000204602F07CFE0028E4DBE2E700BEFFFF79
:104A0000F0B50C4685B0002105461646FFF760FF5D
:104A1000002839D102A802F03CFD21466A6802A8AC
:104A200002F0F4FD044618B102A802F037FD0CE0D4
:104A300005F10804214602A802F059FE002807DB10
:104A400002A802F02BFD6FF00304A4F5854418E0E2
:104A500005F1480302A96F680846009305F11002AA
:104A6000234602F0D8FF04460028DDD13A463146FD
:104A700002A802F0E1FD044602A802F00FFD002C9E
:104A8000E3D1204605B0F0BD004CFAE780BFFFFF40
:104A9000012903462DE9F04143D8234A002918BFD4
:104AA0009046224A224F18BF964602F1794202F5FB
:104AB000740202F5016218BF94461E4A1E4818BFD0
:104AC00017461E4A1E4E18BF164602F1D14208BFB5
:104AD000804602F5C0121B4802F51E6208BF8646DA
:104AE000194D1A4818BF1546194A08BF8446194C73
:104AF000194818BF1446A2F11162A2F50C22A2F2C5
:104B00008E2218BF02460020C3E9128EC3E91000AE
:104B1000C3E914C7C3E91665C3E918429966BDE83D
:104B2000F0816FF07300FAE7D89E05C107D57C3697
:104B30003AF54FA539590EF767E6096A310BC0FF00
:104B40007F520E5185AE67BB8C68059B72F36E3C3D
:104B5000A78FF964ABD9831FA44FFABE2DE9F04F9C
:104B6000CDB000F1640300F144070DF586790093A0
:104B70004A463B46019153F8041F42F8041F00992E
:104B80009942F8D102AD4FF000082C46DFF8F8A0AA
:104B9000B8F10F0F61D8019B03EB880003F03BF9DC
:104BA00003F0E4F90146A960D4F81801D4E9476399
:104BB0004FEAF0227340D4F8206182EAB012034039
:104BC00082EA706273401344D4F824215AF804CB6B
:104BD0001344D4F8106163440B44D4E9421E4FEAF5
:104BE000713C41EA0E0232408CEAB10C01EA0E0B34
:104BF00042EA0B028CEAB15C9444D4F81421D4F854
:104C000020611A44C4F82461C4F81821D4F81C6146
:104C1000D4F8102108F101086344B8F1400FC4E949
:104C20004706C4E944E2C4E94231C4F804C0236041
:104C300005F10405ACD157F8043F59F8042F13448B
:104C40003B60009BBB42F6D102A84FF49471FFF782
:104C50001DFE00204DB0BDE8F08F2B6855F8382CB4
:104C60004FEAF34181EA734181EA932155F8143CFC
:104C700055F8340C134419444FEAB04383EAF01357
:104C800083EAD00319448EE7DC8E000008B5EFF309
:104C90001083012B0C4A07D1126ABFF34F8F511CAE
:104CA0004A424A41104608BD03F02DFA00B172B6DF
:104CB000126ABFF34F8F531C5A425A4103F023FA32
:104CC0000028EFD062B6EDE70080FF0008B5EFF3F3
:104CD0001083012B0B4A06D1D269BFF34F8F02F02C
:104CE0000102104608BD03F00EFA00B172B6D26997
:104CF000BFF34F8F02F0010203F005FA0028F0D055
:104D000062B6EEE70080FF0010B503F0FCF930B1A9
:104D10004FF050230022C3F81421C3F8182103F0E8
:104D200001FA28B101224D4BC3F8382AC3F878257F
:104D30004FF47F02D2F83031D2F83421BFF34F8FD5
:104D4000C3F30B03092B05D1012A1EBF0122434BDC
:104D5000C3F8782503F0E6F918B10E22404BC3F8EA
:104D6000E42E03F0D0F930B100223C4BC3F80C27FD
:104D70000122C3F810270022D30003F57F03D3F8E4
:104D80000013BFF34F8F013108D0D3F80013013265
:104D9000D3F80433B2F5807F0B60EDD1EFF31084CC
:104DA000FFF794FF00284DD0BFF34F8F2D4BD3F862
:104DB0000024012AFBD1C3F80425D3F80024012ADA
:104DC000FBD1012C03D003F09EF900B172B6FFF7BE
:104DD0007DFF58B1244AD36923F00103D361BFF3A7
:104DE0004F8F204AD2F80034012BFBD1FFF74EFF42
:104DF00068B11D4A136A23F0FF0343F020031362D6
:104E0000BFF34F8F174AD2F80034012BFBD1012C8E
:104E100003D003F078F900B162B60022114BC3F859
:104E20000425D3F80024012AFBD1BFF34F8F0F498B
:104E30000F4BCA6802F4E0621343CB60BFF34F8F9D
:104E400000BFFDE7FFF722FF0028ADD1074AD2F8E7
:104E50008C3043F44063C2F88C3010BD00400050E9
:104E600000A00350009003500080FF0000ED00E020
:104E70000400FA0530B50468ACB1B4FA84F3012239
:104E8000C3F11F03DBB29A4024EA0202D0E8EF5FCD
:104E9000A54204D1C0E8EC2FBCF1000FF6D1EAD155
:104EA00002480B7030BD0248FCE700BF0000AD0BAC
:104EB0000200AD0B10B50368CB40DB0710D4012313
:104EC0008B40026843EA0201D0E8EF4F944204D1DC
:104ED000C0E8EC1FBCF1000FF6D1F2D1014810BDC3
:104EE0000148FCE70000AD0B0400AD0B014BC3F81B
:104EF0000405704700700150044B1A7922B9012251
:104F000018601A710248704702487047A41B0020BD
:104F10000000AD0B0C00AD0B08B5084B1B6833B19E
:104F20000520FDF7A5FF10B90520FDF77FFF4FF025
:104F300050230122C3F8182508BD00BFA41B002080
:104F400010B510B1012847D010BD4FF05023D3F851
:104F50001814D3F81824C90322D502F00303022B36
:104F600005D0012B02D0002003F0F8F801234FF008
:104F700050220220C2F8183508224FF48273002113
:104F800003F1502319601C68012402F150221460BF
:104F9000164A126822B34FF05023C3F80403D3E734
:104FA000D3F81424D207E1D5D3F81C2402F003026D
:104FB000013A012AD7D80D4A12681AB10222C3F861
:104FC0000423C1E7D3F80421002AFBD00022C3F850
:104FD0000421D3F80431B7E700224FF48073CEE701
:104FE0001A68002AFCD019601B68ADE7A41B0020DA
:104FF0004FF0502310B5D3F8002152B10020C3F870
:105000000001D3F800210122C3F80823104B1B68CC
:1050100098474FF05023D3F8042182B10022C3F8FF
:105020000421D3F80421D3F81824D3F8182402213A
:1050300002F00302012A03D1C3F818159A6010BDCB
:10504000C3F80813024B0120BDE810401B68184745
:10505000A41B002001460148FFF70CBF58000020A8
:10506000036803F01F025B090260024818BF0020BA
:10507000704700BF0025845070B50D4C00F1080347
:1050800034F813300546DA050E4607D5C3F343233B
:1050900004EBC302526854F833309847A3682BB12D
:1050A00031462846E268BDE87040184770BD00BF31
:1050B0005C000020024611F0010004D003490B6A95
:1050C00013600B6203B90020704700BF00258450B5
:1050D00010B4124AC0B2083032F81030D9051BD5CE
:1050E000C3F3432123F4F85322F81030002002F1D7
:1050F0000E0434F8023F13F4807F03D0C3F343233C
:10510000994209D001302028F3D1002342F83130F0
:10511000034810BCFFF7CEBE10BC70475C000020F7
:10512000B4000020F0B505460020012604460746DD
:105130008C420BD1114BD3F87C2132B10022C3F841
:105140007C21D3F87C3140F00040F0BDE3B29B00FD
:1051500003F580729B0806FA03F31D420BD002F19F
:10516000A04202F55042D2F800C0BCF1000F02D0BC
:105170001760126818430134DAE700BF00D000500E
:10518000CBB2024608460D49083331F81330990670
:1051900011D599070FD4012110685B0B9940C0F815
:1051A0000813126802EB8303D3F8102522F00302E0
:1051B000C3F810257047002103F074B85C0000208C
:1051C000F7B5194ECDB2083536F815300746DB076E
:1051D0000C4626D5FFF7D4FF36F815309A0608D5C9
:1051E0005A0B3B6803EB82030022C3F81025C3F877
:1051F00010252046FFF76CFF002301A826F8153084
:105200000194FFF72DFF019B00EB8300D0F80022F3
:10521000064B134043F00203C0F80032044803B0C9
:10522000F0BD0448FBE700BF5C000020F0F8FCFF85
:105230000000AD0B0400AD0B2DE9FF4113680746DC
:105240000C461646FBB1DFF83C81CDB2083538F884
:10525000152002F02202222A22D000222046CDE987
:1052600000228DF80E208DF80F200DF10E010DF1AA
:105270000F0202F0CEFF38F8153023F0020343F09E
:10528000010328F8153073684BB31A785868DFF8B3
:10529000F4C0E3B208333CF813108D0702D5B0B167
:1052A00039481FE021F02001C904C90C2CF8131063
:1052B00068B1032AF4D870683D68406890F800E04F
:1052C00005EB8E058AB9C5F81025C5F810253CF800
:1052D000131021F01C0141EA82022CF81320B3685C
:1052E0002BBB2A4804B0BDE8F081D5F8108541EA0F
:1052F0004E3128F00308C5F810853D6841F02001C3
:1053000005EB8E05D5F810052CF8131020F4473066
:1053100020F44070C5F810052002D5F8107500F48F
:10532000F85040EA02403843C5F81005CFE7204660
:10533000D3E90067FFF7CCFE002ED2D0114DD5E99E
:105340000023964203D19F4201D1002209E0104878
:105350000DF10F01FFF78EFD0C4B9842C2D19DF865
:105360000F20E4B205EBC20308345F6035F8143057
:1053700045F8326043EA422343F4807325F8143041
:10538000AFE700BF5C0000200400AD0B0000AD0BD8
:10539000B40000202DE9FF4107460C461E4612B31B
:1053A000DFF8D480CDB2083538F81530980701D42D
:1053B000990621D413F01C0F02D05378012B1BD077
:1053C00001238DF80F3000232046CDE900230DF195
:1053D0000F01931C013202F01CFF38F8153043F026
:1053E000030328F81530002E44D0234DE1B20831D4
:1053F00035F81120930703D4204804B0BDE8F081AC
:10540000002096F800E03B6822F02002D20403EB73
:105410008E03D20CC3F8100525F81120C3F810052F
:1054200096F801C04FEA8E08BCF1000F22D0386810
:10543000B6784044D0F810354FEA0C4C23F498135A
:1054400023F4F853C0F81035230203F4F8530CF496
:10545000403C3605D0F8107543EA0C0306F480167C
:10546000334342EA4E323B4342F02002C0F810354B
:1054700025F811200248C0E75C0000200400AD0BB5
:105480000000AD0B014BC3E9021270475C00002025
:10549000054BC9B2083133F81130990643BF5B0B95
:1054A00002481370024870475C0000200000AD0BFA
:1054B0000400AD0B70B5174E054696F860403CBB36
:1054C0002146402206F1100001F046F921462D68E0
:1054D000306D884212D1002345F30730C5F87C3186
:1054E000D5F87C31FDF7A2FC4FF00043C5F804333A
:1054F0000123094886F86030B36570BDCBB29B00CC
:1055000003F580727C2B04BFAC50AB580131E0E74F
:105510000248F2E75C0000200000AD0B0C00AD0B70
:10552000034B93F86000003818BF0120704700BF9C
:105530005C0000200148FFF7BDBC00BFB0000020A8
:105540000148FFF797BC00BFB000002073B5CBB295
:105550000C461D49083331F8133099061AD513F05B
:10556000020617D15B0B05689C0004F580716E5034
:10557000695801682144D1F8104544F00104C1F88C
:1055800010452AB10122016802FA03F3C1F804337D
:1055900002B070BDC3F38203042B11D0052B11D0D0
:1055A00001A80194FFF75CFD019A0369D34003F061
:1055B0000103991C204602B0BDE8704002F072BEA3
:1055C0000321F7E70221F5E75C0000202DE9F3470E
:1055D000534B544FD3F80403396DC0B240F0004030
:1055E000FFF7A0FD051E18DA00236846F96D009349
:1055F0004FF00108FFF75EFD97F85C30DA0757D4EB
:10560000396D4FF00040FFF78DFD6846F96DFFF7EB
:1056100051FD0028F0D125F000450124002D66D170
:1056200002B0BDE8F08794FAA4F4B4FA84F4E00878
:1056300004F1080337F8139004F007021DF8003056
:1056400008FA02F223EA02030DF8003001A80194DF
:10565000FFF706FD019B4FEA9901803350F8236064
:10566000C9F3820A4B07D146C6F3014624D520462A
:105670005146FFF701FD01A80194FFF7F1FC019BE2
:10568000F6B2803350F82330C3F301439E4207D172
:105690000021204602F006FE3146204602F002FEBE
:1056A00001A80194FFF7DCFC019B08FA03F30362F5
:1056B000009C002CB7D1A3E7022E0CD10321204679
:1056C00002F0F0FD0AF00503012BE9D1494620461E
:1056D000FFF7D2FCE4E70221204602F0E3FDBAF135
:1056E000030FF3D0032EDBD1BAF1020FEDE795FAE9
:1056F000A5F3B3FA83F304FA03F29B0003F1A0438A
:1057000003F55043D3F81005D3F81015C0F3042067
:10571000C1F3014125EA0205FFF7AEFC7EE700BFB9
:1057200000D000505C0000200022034BC3F8842509
:10573000C3F80425704700BF00900350044AD2F814
:105740000834DB07FBD50160BFF35F8F704700BFF4
:105750000090035008B5C0F30B0383B90222094B34
:10576000C3F88425C3F804254FF0FF320260D3F854
:105770000024D207FBD5FFF7D7FF034808BD034835
:10578000FCE700BF009003500000AD0B0A00AD0B1A
:10579000012208B5054BC3F88425C3F80425FFF79B
:1057A000CDFFBDE80840FFF7BFBF00BF009003502A
:1057B00070B516461D465A1C036804461344C26859
:1057C0009A4206D2036A0BB9002070BD0822DA6043
:1057D000FAE732783DB1AB1E062B8EBF00230B4A91
:1057E000D35C1833DAB2204603F013F80028EBD06C
:1057F0003544B54203D1A3680133A360E5E72368CC
:105800005A1C226015F8012D1A70F2E71C9900004D
:10581000104B70B553F82040013053F82060A64279
:1058200000D870BDD4E9003595B153B128469847EA
:1058300038B10028B8BF4042FF28A8BFFF20EB685E
:105840001870EA68537843F0010353700834E6E7B0
:105850009847FBE7DC8F0000012208B5084B0320C6
:105860001A70FFF7D5FF00F01BF90420FFF7D0FFF7
:10587000FAF7D0FD034A137B23F00103137308BD2D
:10588000933D00205001002008B50348034A002141
:10589000121A03F0A6F808BD30010020943D002044
:1058A00008B50020FFF7B4FF164B03F5006282F342
:1058B000088883F30A880025E023134C84F82230FB
:1058C000E57725766576A57684F82050636A43F4FB
:1058D000E023636284F82350FDF71EFAFDF726FBF0
:1058E0004FF0FF33A362E36203F05FF80120FFF79C
:1058F0008FFF0220FFF78CFF2B462A4629460348DC
:10590000FDF7F6FA983D002000ED00E05958000040
:1059100008B50648064A0749121A03F064F8BDE8BC
:105920000840054A0549064803F05DB8000000201C
:10593000300100205499000000000000549900003C
:1059400000000020034B1B680BB9FEF795BA00203E
:10595000704700BFAC1B002010B50E4B1C689C426A
:1059600004D1FFF7EFFF6FF0004010BDFFF7EAFF33
:10597000002CF8D0D4E904321B1A62EBE072B3F1C8
:10598000004F72F10001EEDA002AACBF1846002089
:10599000EBE700BFC000002030B570B10B4B5B6877
:1059A00098420AD0036843B1D3E90421D0E9044501
:1059B000121941EB0501C3E90421D0E9003213605B
:1059C0005A600023C0E9003330BD00BFC000002092
:1059D0002DE9F84F4FF02003EFF3118C83F3128879
:1059E000BFF36F8FDFF8ACA0DFF8AC900024C9F8EC
:1059F0000000DAF800000025504508BF0020274FBE
:105A0000E046D7E90021D9F8003080B3D0E9046C32
:105A10004FEAE37EB3427EEB0C0B05DAF61A6CEB31
:105A20000E04C0E9046422E0B21841EBE671C0E95B
:105A30000445C7E90021FFF7AFFF88F31188BFF3E2
:105A40006F8F836898474FF02003EFF3118883F33B
:105A50001288BFF36F8FD9F80030DAF800009B1B73
:105A60005045C446C9F80030CAD1D7E90021002406
:105A70009A1841EBE373C7E90023C9F80040FFF728
:105A80006BFF2146FEF7CAF988F31188BFF36F8FC9
:105A9000BDE8F88FC0000020AC1B0020D001002022
:105AA000014800F047BC00BF2399000010B50A4C24
:105AB00023681BB101232360002010BD00F046F8CD
:105AC0000028F7D00138062803D8044B53F82000EB
:105AD00010BD034810BD00BFB01B0020F48F0000B4
